:100000000C9473020C94A4020C94A4020C94A40209
:100010000C94A4020C94A4020C94A4020C94A402C8
:100020000C94A4020C94C7170C94D6170C94A40239
:100030000C94A4020C9490150C94A4020C94A402A9
:100040000C94A4020C94A4020C94A4020C94A40298
:100050000C945D350C94A4020C94A4020C947D17AE
:100060000C94A4020C94A4020C94A4020C94A40278
:100070000C94A4020C94A4020C94A4020C94A40268
:100080000C94A4020C94A4020C94A4020C942335A6
:100090000C94DA140C94B0140C94A4020C94021F67
:1000A0000C94A4020C94A4020C94A4020C94A40238
:1000B0000C94A4020C9403350C94A4020C94A40296
:1000C0000C94A4020C94A4020C94E8340C948614AE
:1000D0000C945C140C94A4020C9432140C94081428
:1000E0000C94A40207634236B79BD8A71A39685606
:1000F00018AEBAAB558C1D3CB7CC5763BD6DEDFD4A
:10010000753EF6177231BF000000803F0800000006
:10011000BE922449123EABAAAA2ABECDCCCC4C3EFC
:1001200000000080BEABAAAAAA3E00000000BF00EB
:100130000000803F0000000000084178D3BB4387E7
:10014000D1133D190E3CC3BD4282AD2B3E68EC82FB
:1001500076BED98FE1A93E4C80EFFFBE01C4FF7F80
:100160003F00000000000C94F7050C9496720C946C
:10017000CB2C0C94D0630C94C80F0C94D2650C94C7
:10018000952B0C94D9290C94E8650C944F150C947C
:10019000A1080C94775A0C948A150C94A4720C94B0
:1001A00071650C9434150C94AD080C94FB020C94FE
:1001B000C0070C944D640C948E670C94255A0C94D3
:1001C000AB080C9453150C94C4040C943B040C948D
:1001D00091640C94BD0C0C943C060C9486150C9404
:1001E000E0310C941C270C9460150C94B0080C940E
:1001F00023650C94DD650C9465270C947C150C9498
:100200006E320C942A0B0C94EC020C94BF290C94C3
:10021000DC240C946A150C94F3040C94FB500C949D
:10022000A6020C94EF160C9464150C941D030C9408
:10023000F6720C949D590C947F650C9418640C9480
:100240003F250C940F170C9490630C94C0720C947F
:100250007D040C940F030C949F640C94FA4A0C9444
:100260001D060C94B6030C94EB500C941D510C9489
:1002700035590C94B5650C945A150C94D5640C94AE
:1002800039150C94C1590C9419620C94390B0C94C7
:10029000F3650C94AB640C9425060C94F74A0C940B
:1002A00074170C94F8290C94CB4A0C946E040C949B
:1002B0002C040C94052A0C9467630C9480150C9400
:1002C000B7630C9472150C94FB050C946E150C948A
:1002D0007A640C946B310C9497040C94DB4F0C945F
:1002E0007A630C94940B0C94A8630C94BB640C94E8
:1002F000F2640C94FB0A0C9490040C9448650C94E2
:100300009D720C946D040C948B650C94E1050C9417
:10031000DF630C94032E0C945B650C9406060C941E
:100320006B040C943B270C94E32E0C9469030C94FF
:100330005D0B0C9466640C94C50B0C948D620C944C
:100340009B650C949D080C94CA4A0C949D630C9474
:1003500021060C9432040C9457150C942F040C9421
:100360006C040C9435060C9478150C944B150C9475
:10037000C7130C94F2500C947F0B6364696E6F701A
:10038000737578585B00CDCCCC3D0AD7233C17B7AA
:10039000D13877CC2B329595E6241FB14F0A000057
:1003A000803FCDCCCC3D6F12833A95BFD6337D1DB7
:1003B0009026B3CE010C000020410000C84200404E
:1003C0001C4620BCBE4CCA1B0E5AAEC59D741F1CD9
:1003D0001F1E1F1E1F1F1E1F1E1F00000A0B0209CB
:1003E0000C0D0E08070304010000000000000000CF
:1003F00000000000000000000000000000000000FD
:1004000000000000000012111000000000000000B9
:1004100000000000000000000000000000000000DC
:100420000200002200250028002B002E003100349D
:100430000002010000050108010B01000021002459
:100440000027002A002D00300033000101000004C5
:100450000107010A01050505050705080808080246
:100460000202020A0A08080404040401010101014D
:100470000101010303030303030303040707070C3C
:100480000C0C0C0C0C0C0C020202020606060606F2
:100490000606060B0B0B0B0B0B0B0B01021020209F
:1004A00008081020401020408002010201080402C8
:1004B000010102040810204080804020100804023E
:1004C0000180040201804020100804020108040297
:1004D000010102040810204080010204081020409D
:1004E0008000F6728E6711241FBECFEFD1E2DEBF0F
:1004F000CDBF00E00CBF18E0A0E0B2E0E2ECF8E015
:1005000001E00BBF02C007900D92A436B107D9F7E6
:1005100020E1A4E6B8E001C01D92A634B207E1F7DD
:1005200012E0C2E7D2E000E006C021970109802F67
:10053000FE010E94D27BC137D10780E00807A9F7EE
:100540000E9494670C944F840C940000AF92BF9269
:10055000CF92DF92EF92FF920F931F93CF93DF938F
:100560006C017B018B01040F151FEB015E01AE18BE
:10057000BF08C017D10759F06991D601ED91FC91E0
:100580000190F081E02DC6011995892B79F7C501FD
:10059000DF91CF911F910F91FF90EF90DF90CF905F
:1005A000BF90AF900895FC01A089B1898C91A68974
:1005B000B78982FD0FC09C91818D8F5F8F73228DD3
:1005C000821749F0A18DAE0FBF2FB11D5D969C9390
:1005D000818F08958C910895FC01538D448D252FB2
:1005E00030E0842F90E0821B930B541710F0CF96CD
:1005F000089501970895FC01918D828D981761F0FF
:10060000A28DAE0FBF2FB11D5D968C91928D9F5F15
:100610009F73928F90E008958FEF9FEF0895FC01F4
:10062000918D828D981731F0828DE80FF11D858DA7
:1006300090E008958FEF9FEF0895FC01918D228D3A
:10064000892F90E0805C9F4F821B91098F739927BF
:10065000089588E79BE00E941D0321E0892B09F49F
:1006600020E0822F089589E19AE00E941D0321E095
:10067000892B09F420E0822F089586EB9AE00E94EE
:100680001D0321E0892B09F420E0822F0895FC014D
:10069000A48DA80FB92FB11DA35ABF4F2C91848DE3
:1006A00090E001968F739927848FA689B7892C9340
:1006B000A089B1898C91837080648C93938D848D93
:1006C000981306C00288F389E02D80818F7D808396
:1006D0000895EF92FF920F931F93CF93DF93EC0156
:1006E00081E0888F9B8D8C8D98131AC0E889F989D9
:1006F000808185FF15C09FB7F894EE89FF896083DC
:10070000E889F98980818370806480839FBF81E05C
:1007100090E0DF91CF911F910F91FF90EF9008959E
:10072000F62E0B8D10E00F5F1F4F0F731127E02E79
:100730008C8D8E110CC00FB607FCFACFE889F989B1
:10074000808185FFF5CFCE010E944703F1CFEB8D6D
:10075000EC0FFD2FF11DE35AFF4FF0829FB7F89485
:100760000B8FEA89FB8980818062CFCFCF93DF93A3
:10077000EC01888D8823B9F0AA89BB89E889F989B9
:100780008C9185FD03C0808186FD0DC00FB607FCEE
:10079000F7CF8C9185FFF2CF808185FFEDCFCE0121
:1007A0000E944703E9CFDF91CF91089580E090E068
:1007B000892B49F080E090E0892B29F00E9400000D
:1007C00081110E94000080E090E0892B29F00E94B6
:1007D0003D0381110E94000080E090E0892B29F008
:1007E0000E94330381110E94000080E090E0892B79
:1007F00029F00E94290381110C9400000895209192
:10080000D00025FFFCCFFC0120812093D600209151
:10081000D00027FFFCCFFC019B012150310979F06A
:1008200051814091D00045FFFCCF4091D6005093BC
:10083000D6005091D00057FFFCCF4193EECF6150CE
:100840007109860F971F2091D00026FFFCCF2091C1
:10085000D600FC0120830895A098A1980895A09A3D
:10086000A19A0895E5E0F1E080818B7F808380810B
:10087000877F80830895E5E0F1E080818460808354
:10088000808188608083089520919E08260F3327F9
:10089000331F21323105ECF42091090AFC0190E06C
:1008A00080E0243069F082E00895A0919E082191B3
:1008B000AC014258574FA40FB52FB11D2C93019690
:1008C000861798F380919E08680F60939E0880E0D9
:1008D000089581E00895089508950895E0911C0C0D
:1008E00080911B0CE81730F4F0E0E751F64F80815F
:1008F00090E008958FEF9FEF089590911C0C8091E8
:100900001B0C2FEF3FEF981748F4E92FF0E0E75169
:10091000F64F208130E09F5F90931C0CC901089531
:1009200080911B0C90911C0C891B990B0895CF9200
:10093000DF92EF92FF920F931F93CF93DF937C018F
:10094000CB018A012091A209222389F0EB016B01DE
:10095000C40ED51ECC15DD0569F06991D701ED9166
:10096000FC910190F081E02DC7011995F3CF642F20
:100970000E944404C801DF91CF911F910F91FF9015
:10098000EF90DF90CF900895CF93DF931F92CDB774
:10099000DEB769832091A2092223F9F02091190C76
:1009A000203258F021E030E0FC013383228390E0D4
:1009B00080E00F90DF91CF91089580911A0CE82F7D
:1009C000F0E0ED55F64F998190838F5F80931A0C7C
:1009D0008093190C81E090E0ECCF61E0CE010196AC
:1009E0000E944404F7CF0895FC01A281B381808165
:1009F000918130E020E0A817B90738F4CD010196C5
:100A0000938382836C9321E030E084819581820F0F
:100A1000931F958384830895CF93DF93FC01828194
:100A20009381EB01460F571FA281B3812081318151
:100A3000A217B30758F4C417D50741F02991BD0197
:100A40006F5F7F4F738362832C93EECFA81BB90B2C
:100A500084819581A80FB91FB583A483DF91CF91BD
:100A600008958F929F92AF92BF92CF92DF92EF92B2
:100A7000FF920F931F93CF93DF93CDB7DEB76697A7
:100A80000FB6F894DEBF0FBECDBF6C018E01095EBC
:100A90001F4F78018AE0882E912CA12CB12CCB011C
:100AA000BA01A50194010E94AB78942F852F605D57
:100AB000F80162938F01A901692F782F4115510523
:100AC0006105710561F7A7014E1B5F0BBF01C601F0
:100AD0000E940C0566960FB6F894DEBF0FBECDBF20
:100AE000DF91CF911F910F91FF90EF90DF90CF900A
:100AF000BF90AF909F908F900895CF93DF9300D0D9
:100B00001F921F92CDB7DEB729833A834B835C8354
:100B10006D8329813A8150E040E02115310511F0C3
:100B200043EF54E0DC01ED91FC9184818078452B0A
:100B300049F484830F900F900F900F900F90DF91E6
:100B4000CF9108954B815C819D81992339F0846018
:100B500084833183208353834283ECCF8560F8CF35
:100B6000E0917708F0917808808190917608892B40
:100B700080830895E0917708F091780890818091C2
:100B80007608809589238083089590E02091180A43
:100B9000233339F40C96982F990F990F990F80E011
:100BA00008954896F8CF90E02091180A233339F43D
:100BB0000896982F990F990F990F80E00895409605
:100BC000F8CFCF93DF931F92CDB7DEB76983DC01F7
:100BD000ED91FC910280F381E02D41E050E0BE01F7
:100BE0006F5F7F4F19950F90DF91CF910895FC01B2
:100BF000818D928D0895FC019485FB018485981365
:100C000003C081E0983008F080E00895CF93DF932F
:100C10001F92CDB7DEB76983DC01ED91FC910280B4
:100C2000F381E02D41E050E0BE016F5F7F4F1995E9
:100C30000F90DF91CF9108950895FC0184859585EB
:100C40000895FC0184899589089529E333E0FC0126
:100C500031832083FB014089518962897389FC01BA
:100C600042835383648375830895DC01ED91FC9185
:100C7000048CF58DE02D199490E080E008952F927A
:100C80003F924F925F926F927F928F929F92AF921C
:100C9000BF92CF92DF92EF92FF920F931F93CF9369
:100CA000DF9300D000D0CDB7DEB71C014A015B0155
:100CB00086E0D1011A968C9320E836E948E15BE49E
:100CC000CB01B4010E94237A87FD7DC004E110E0CE
:100CD00060E2462E512C1E821D82F801EA54FC4F20
:100CE0002591359145915491C501B4010E94237A13
:100CF00087FD13C0F801EA57FC4F259135914591C6
:100D00005491C501B4010E94C7774B015C01ED818C
:100D1000FE81E40DF51DFE83ED8355944794045048
:100D200011090C3FFFEF1F07C1F677247A9420E0EA
:100D300030E0A901C501B4010E94237A18160CF015
:100D40004AC02CEA35EC47E257E3C501B4010E94E2
:100D5000617718160CF43FC0272D34E02302800180
:100D60001124F12CE12CC80182569C4F6C010A54CD
:100D70001C4F9FEF791679F1F601EE0DFF1D2591BD
:100D8000359145915491C501B4010E94617787FF67
:100D900013C0F801EE0DFF1D259135914591549139
:100DA000C501B4010E94C7774B015C01AD81BE81D2
:100DB000A419B509BE83AD83559447947A94B4E0E1
:100DC000EB1AF108D6CF30E2432E512C45E0742EB9
:100DD0001E821D82ACCF2D813E81F101318720879B
:100DE000C501B4010E94F47969837A838B839C8363
:100DF000D1016D937D938D939C9313972B013C01AF
:100E000090E4C92E92E4D92E9FE0E92EF12CBAE0AD
:100E10004B16510461047104C8F0C701B6012AE001
:100E200030E040E050E00E94AB7869017A01F101C6
:100E3000828581508287C301B2012AE030E040E020
:100E400050E00E94AB7829013A01E1CF69817A81B3
:100E50008B819C810E9466779B01AC01C501B40126
:100E60000E940E794B015C01C701B6010E946677B2
:100E70009B01AC01C501B4010E94C7772B013C0165
:100E80000E94F4794B015C010E9466779B01AC01E2
:100E9000C301B2010E940E799B01AC010E940F793F
:100EA0000E94F479860E971EA81EB91E8C149D040C
:100EB000AE04BF0430F5D10114968D929D92AD928F
:100EC000BC9217978AE0C82ED12CE12CF12CD101CD
:100ED00014966D917D918D919C911797A701960124
:100EE0000E94AB78672B682B692B89F5F10182850D
:100EF00018166CF524833583468357838150828787
:100F0000E6CFF101148215821682178289819A81B7
:100F1000AB81BC810196A11DB11D80839183A28309
:100F2000B3832D813E812115310561F20A97A10518
:100F3000B10540F2C90101969187808781E090E078
:100F4000A0E0B0E080839183A283B383BBCF2696D9
:100F50000FB6F894DEBF0FBECDBFDF91CF911F91CA
:100F60000F91FF90EF90DF90CF90BF90AF909F9048
:100F70008F907F906F905F904F903F902F9008954B
:100F800008950F931F93CF93DF93DB0112962D915A
:100F90003C91EC01E881F9818A819B81DF01A20FFC
:100FA000B31FA817B907A8F44C9141110EC0EB016B
:100FB000A881B981EF018D01020F131FA017B1079E
:100FC00051F05D9149915417C9F341914111FDCF01
:100FD000E5CFF0E0E0E0CF01DF91CF911F910F91DD
:100FE000089580916408882331F0809175088530D8
:100FF00010F0109275088091130A20916F0890915B
:10100000140A21112CC0882321F08091110A882311
:10101000A9F0809102018F7D809302019923B1F0A4
:101020008091150A882391F08091030185FD0AC003
:1010300080910B018F7E80930B01089580910201B6
:101040008062EACF8091030185FD04C080910B018D
:101050008061F1CF80910B0190E18927ECCF88234B
:1010600021F08091110A882399F080910B018F7DE6
:1010700080930B019923A1F08091150A882381F0B8
:101080008091030185FD08C080910B01877FD3CF3C
:1010900080910B018062ECCF8091030185FD04C03B
:1010A00080910B018860C7CF80910B0198E0D5CF6C
:1010B000CF93DF9300D01F921F92CDB7DEB7FC0114
:1010C00084818F77843039F0853081F01A821982DB
:1010D0001C821B8208C082819381208131813A83E6
:1010E00029839C838B8381E08D8309C082819381D6
:1010F000208131813A8329839C838B831D822981BE
:101100003A814B815C816D8170E080E090E00F90CE
:101110000F900F900F900F90DF91CF910895FC01E9
:101120002581222339F0F8E02F0290011124820F4B
:10113000931F089590E080E00895FC01768765870D
:101140000895DC01ED91FC91068CF78DE02D199549
:1011500091E089270895862F089581E086270895D4
:1011600021E0FC018485883008F020E0822F08957A
:10117000CF92DF92EF920F931F93AB01D12CC12C32
:10118000E12C00E010E0980162E00E94A4611F9150
:101190000F91EF90DF90CF900895FB010190002018
:1011A000E9F73197AF01461B570BDC01ED91FC913C
:1011B0000280F381E02D19948F929F92AF92BF929B
:1011C000EF92FF920F931F93CF93DF93CDB7DEB7CC
:1011D000A1970FB6F894DEBF0FBECDBF7C01FA0118
:1011E000CB0119A2223008F42AE08E010F5D1F4FB7
:1011F000822E912CB12CA12CBF01A50194010E943B
:10120000AB78F901CA016A300CF5605DD8016E93C4
:101210008D01232B242B252B79F790E080E010976C
:1012200021F0BD01C7010E94CD08A1960FB6F89428
:10123000DEBF0FBECDBFDF91CF911F910F91FF9009
:10124000EF90BF90AF909F908F900895695CDECF34
:10125000FC01A081B181109749F0FD0101900020AF
:10126000E9F73197CF018A1B9B0B089590E080E04E
:101270000895CF92DF92EF92FF920F931F93CF9337
:10128000DF9300D01F92CDB7DEB78C016B017A01DE
:101290008091180A833369F410E000E00E151F05F1
:1012A00009F43FC00E94BA050E94B0050F5F1F4FAE
:1012B000F5CF843379F40E94BA0519830A838F2D00
:1012C0008F778B83EC82A70170E060E0C6010E94FB
:1012D0000F7E25C08D3309F051C00E94BA05809160
:1012E0007C0890E0982F88270817190740F5812F70
:1012F0008F7789830A831B8263E070E0CE010196B9
:101300000E94FF03A70170E060E0C6010E940F7E0B
:10131000E114F10421F0B701C6010E94FF030E940D
:10132000B005C7010F900F900F900F90DF91CF91F4
:101330001F910F91FF90EF90DF90CF90089517FDD0
:101340000DC0812F837089830A83812F86958695AE
:101350008295880F807E88608B83CECFC80146E05F
:10136000969587954A95E1F7807E19830A83011542
:10137000104C10F48061F0CF8861EECF0E94BA0566
:101380000F3F110509F020F419820A831B829BCFBD
:1013900017FD0BC019820A8333E0169507953A951D
:1013A000E1F7007E08600B838ECFC80126E096959A
:1013B00087952A95E1F7807E19830A830115104CE1
:1013C00018F480618B837FCF8861FCCFCF93DF934C
:1013D0001F92CDB7DEB741E050E0BE016F5F7F4F97
:1013E0000E94390989810F90DF91CF9108958091F2
:1013F000180A8D3321F480E090E20C94E60990E025
:1014000080E0FBCF8091180A8D3321F480E090E4D6
:101410000C94E60990E080E0FBCF20917C0830E05E
:10142000322F2227620F731F2091790830917A089A
:10143000482F429FC001439F900D1124860F971F94
:101440000C94E6099091180A60E370E09D3311F066
:1014500063E070E00C940D0A9091180A60E270E06D
:101460009D3311F062E070E00C940D0ADA01E09116
:101470007C08F0E0FE2FEE27E60FF71F4091790879
:1014800050917A08682F649FC001659F900D1124C8
:10149000A901BD018E0F9F1F0C943909CF93DF93D3
:1014A0001F921F92CDB7DEB79091180A22E030E06C
:1014B000AE014F5F5F4F68E272E09D3311F068E26A
:1014C00070E00E94360A89819A8198278927982797
:1014D0000F900F90DF91CF910895CF93DF931F92DC
:1014E0001F92CDB7DEB79091180A22E030E0AE012E
:1014F0004F5F5F4F64E272E09D3311F066E270E08F
:101500000E94360A89819A819827892798270F9007
:101510000F90DF91CF910895CF93DF931F921F9289
:10152000CDB7DEB79091180A22E030E0AE014F5FF0
:101530005F4F64E072E09D3311F060E270E00E9462
:10154000360A89819A819827892798270F900F90CA
:10155000DF91CF9108950F931F93CF93C82F0E94CF
:101560008C0A8C018C2F0E948C0A08171907C9F766
:1015700087E0C89FF0011124EA59F64F15830483D0
:10158000C801CF911F910F910895BC018091180A55
:1015900044E050E08D3321F488E391E40C94390960
:1015A0008FE090E0FBCFBC018091180A44E050E04E
:1015B0008D3321F480E391E40C94390981E090E0CB
:1015C000FBCF1F93CF93DF93182F80E591E00E940C
:1015D0000B57812F0E94AB0AEC01812F0E94220A37
:1015E000873121F08C3111F0D0E0C0E0CE01DF91E5
:1015F000CF911F910895FC018485883010F40C94DC
:10160000E10A90E080E008951F93CF93DF931F924B
:10161000CDB7DEB7182F80E591E00E940B57812FE0
:101620000E94C50527E0129FF0011124EA59F64FE8
:1016300022813381377041E050E0BE016F5F7F4F00
:10164000820F931F0E94390989810F90DF91CF91FA
:101650001F910895FC01808D883040F4218D328DDA
:10166000232B21F00E94040B90E008958FEF9FEF51
:101670000895CF93DF93FC012485283028F08FEF65
:101680009FEFDF91CF910895EC010190F081E02D63
:101690000084F185E02D1995892B89F38C850E94B2
:1016A000040B90E0EECFCF93C82F80E591E00E942D
:1016B0000B578C2FCF910C94220ACF93DF93EC0120
:1016C0008C858830D0F40E94530B843189F08823B4
:1016D00079F0883169F021E08C3159F4E881F981A1
:1016E0000084F185E02DCE01199521E0892B09F4C4
:1016F00020E0822FDF91CF91089580E0FBCFCF9340
:10170000DF93EC018C85883060F40E94530B8731A5
:1017100011F08C3131F48C850E94E10A81159840DA
:1017200088F3DF91CF9108950F931F93CF93DF93A9
:101730001F921F92CDB7DEB7FC012485283010F52B
:101740008C0180E591E00E940B57F801848590910F
:10175000180A22E030E0AE014F5F5F4F60E471E0B5
:101760009D3311F060E170E00E94360A89819A8110
:101770009827892798270F900F90DF91CF911F917D
:101780000F91089590E080E0F6CF0F931F93CF93D1
:10179000DF931F921F92CDB7DEB7FC01248528305E
:1017A00010F58C0180E591E00E940B57F8018485CB
:1017B0009091180A22E030E0AE014F5F5F4F64E184
:1017C00071E09D3311F064E070E00E94360A898177
:1017D0009A819827892798270F900F90DF91CF91B2
:1017E0001F910F91089590E080E0F6CF0F931F9323
:1017F000CF93DF9300D000D0CDB7DEB7182F092FDD
:1018000089E393E09A8389831B821C821D821E8256
:10181000CE0103960E94D30A8B819C812D813E814B
:101820001F923F931F922F931F929F931F928F930C
:101830008BE393E09F938F930F931F930E94407EBF
:101840000FB6F894DEBF0FBECDBF26960FB6F89444
:10185000DEBF0FBECDBFDF91CF911F910F910895D5
:101860000F931F93CF93DF9300D000D0CDB7DEB797
:10187000182F092F89E393E09A8389831B821C82A6
:101880001D821E82CE0103960E94C50A8B819C8117
:101890002D813E811F923F931F922F931F929F9302
:1018A0001F928F938BE393E09F938F930F931F93DC
:1018B0000E94407E0FB6F894DEBF0FBECDBF2696C5
:1018C0000FB6F894DEBF0FBECDBFDF91CF911F9151
:1018D0000F9108950F931F93CF93DF9300D000D003
:1018E000CDB7DEB7182F092F86E0BE016F5F7F4F9F
:1018F000DB01E82F1D92EA95E9F7E12FF92FDF01CF
:101900001D928A95E9F78091180A46E050E08D33E0
:1019100089F580E291E40E9439098F811F928F93AB
:101920008E811F928F938D811F928F938C811F9236
:101930008F938B811F928F938A811F928F938981BE
:101940001F928F9387E493E09F938F930F931F933E
:101950000E94407E0FB6F894DEBF0FBECDBF269624
:101960000FB6F894DEBF0FBECDBFDF91CF911F91B0
:101970000F91089589E090E0CECFCF93C091A10957
:10198000CA01029783369105C0F4FB0182E090E022
:101990008417950741F021912D3519F420812D37B9
:1019A00011F00196F5CFAC0180E099E00E94F47D42
:1019B000C160C093A109CF910895CE7FFACFCF9394
:1019C000DF93EC0188819981009711F00E947D7C62
:1019D000198218821D821C821B821A82DF91CF918C
:1019E00008950F931F93CF93DF93EC018881998122
:1019F000009759F02A813B812617370730F081E0A4
:101A0000DF91CF911F910F9108958B016F5F7F4FF1
:101A10000E94067D009759F0998388831B830A836F
:101A20002C813D81232B59F7FC011082E8CF80E007
:101A3000E7CFEF92FF920F931F93CF93DF93611540
:101A4000710541F480E0DF91CF911F910F91FF90DC
:101A5000EF90089541155105B1F07B01EC010C8127
:101A60001D81040F151FB8010E94F10C882351F34A
:101A7000288139818C819D81B701820F931F0E943B
:101A80001F7E1D830C8381E0DECFCF93DF93EC01BB
:101A9000EAA1FBA1E80FF91F1282BC016E5F7F4F24
:101AA00081F0FB0101900020E9F73197AF01461B5F
:101AB000570B888199810E94190D882311F01BA270
:101AC0001AA28AA19BA1DF91CF9108951F93CF9372
:101AD000DF93EC01162F8AA19BA101968097B8F4A1
:101AE0008AA19BA19C012F5F3F4F3BA32AA38C0F90
:101AF0009D1FFC01128321E030E08CA19DA1820F8B
:101B0000931F9DA38CA3DF91CF911F910895CE01C8
:101B10000E94450D892B21F330E020E0EECFBF92EB
:101B2000CF92DF92EF92FF920F931F93CF93DF93A9
:101B3000EC016A018B017B01E40EF51EE016F10653
:101B4000D1F0F801B1908F018AA19BA101968097F5
:101B500060F48AA19BA19C012F5F3F4F3BA32AA366
:101B60008C0F9D1FFC01B282E9CFCE010E94450D72
:101B7000892B79F3E3CF4CA15DA14C0D5D1D5DA3D5
:101B80004CA3DF91CF911F910F91FF90EF90DF90C9
:101B9000CF90BF9008958F929F92AF92BF92CF92B5
:101BA000DF92EF92FF920F931F93CF93DF93CDB706
:101BB000DEB766970FB6F894DEBF0FBECDBF6C01DF
:101BC0008E01095E1F4F78018AE0882E912CA12C8E
:101BD000B12CCB01BA01A50194010E94AB78942FDE
:101BE000852F605DF80162938F01A901692F782F1D
:101BF000411551056105710561F7A7014E1B5F0B8A
:101C0000BF01C6010E948F0D66960FB6F894DEBF25
:101C10000FBECDBFDF91CF911F910F91FF90EF903D
:101C2000DF90CF90BF90AF909F908F900895FB0171
:101C300001900020E9F73197AF01461B570B0C9438
:101C40008F0D1F93CF93DF93E6E5F3E0128111230D
:101C500079F0329621816213F9CFEC016CE50E9494
:101C6000660D612FCE01DF91CF911F910C94660D0F
:101C70006111F9CF67E673E0DF91CF911F910C946A
:101C8000170E4F925F926F927F928F929F92AF92B8
:101C9000BF92CF92DF92EF92FF920F931F93CF9359
:101CA000DF93CDB7DEB7A1970FB6F894DEBF0FBEB6
:101CB000CDBF7C018B01FC0184818F77863009F4D4
:101CC0005CC160F4823098F0C280D380A080B18083
:101CD000843008F023C1A601B501CAC08C3051F18F
:101CE00048F4883009F444C18A3009F42AC16EE608
:101CF00073E04AC1803209F4DDC08034C1F76BE57E
:101D0000C8010E94660DF701E080F180E114F10442
:101D100009F4B2C0B801C7010E94410EC7010E9478
:101D20008F087C01892B09F4A7C06CE2C8010E94CE
:101D3000660DECCF80809180A280B380A5019401D4
:101D4000C501B4010E9461778111D1CF20E030E05C
:101D5000A901C501B4010E946177882379F0A5012A
:101D60009401C501B4010E940F799B01AC01C5012A
:101D7000B4010E946177882309F4B9CF20E030E0F4
:101D8000A901C501B4010E94617787FF08C06DE217
:101D9000C8010E94660DB7FAB094B7F8B0946E010E
:101DA000F7E1CF0ED11CB501A401C6010E943F0688
:101DB0004F89588D698D7A8DC8010E94CB0DF9A08D
:101DC000FF2091F16B8D7C8D8D8D9E8D4E0121E1DB
:101DD000820E911CEF2C54012AE0422E512C612CD2
:101DE000712CEA94EFEFEE1659F0A30192010E94D4
:101DF000AB78605DF40162934F01B901CA01F1CF84
:101E00008F2D90E0BC0160957095F501E81BF90BF2
:101E100031978EE2808344275527461B570B6A0D66
:101E20007B1DC8010E948F0D8F8D98A1892B41F1D8
:101E300065E6C8010E94660DEF8CF8A0C701F7FEA9
:101E400008C06DE2C8010E94660D882799278E1987
:101E50009F09F6012AE030E0B9010E94BE7B805D57
:101E60008293CB010097C1F7A6014E1B5F0BBF0108
:101E7000C8010E948F0D04C06DE5C8010E94660D67
:101E8000F80184A195A1A1960FB6F894DEBF0FBE0C
:101E9000CDBFDF91CF911F910F91FF90EF90DF9019
:101EA000CF90BF90AF909F908F907F906F905F90FA
:101EB0004F9008956BE7C8010E94660DF701E0801E
:101EC000F180E114F10441F1F701A680B78062E2EC
:101ED000C8010E94660D6501F60161916F016623DC
:101EE00021F0C8010E94210EF7CF62E2C8010E94D2
:101EF000660D6AE3C8010E94660DB801C7010E9421
:101F0000410EC7010E948F087C01892B29F06CE2E9
:101F1000C8010E94660DD5CF6DE7AFCF62E2C80160
:101F20000E94660D7501CE0CDF1CCE14DF0439F063
:101F3000F70161917F01C8010E94210EF6CF62E294
:101F40009CCFC080D180E280F380B701A601F7FE6C
:101F50000BC06DE2C8010E94660D44275527BA01E7
:101F60004C195D096E097F09C8010E94CB0D88CF0D
:101F70004081518162817381F7CF808163E773E093
:101F8000811102C068E773E0C8010E94170E78CF84
:101F90008F929F92AF92BF92CF92DF92EF92FF9279
:101FA0000F931F93CF93DF937C01EB016C0182E0D1
:101FB000C80ED11C4701E5E08E0E911C10E000E038
:101FC000F60141916F0150E070E060E02AE0CE013F
:101FD0000E94DC085C01E881F9810190F081E02D2C
:101FE0006EE2CE0119958A0D9B1D080F191FC814AA
:101FF000D90431F7F701458150E070E060E02AE054
:10200000CE010E94DC08800F911FDF91CF911F91BC
:102010000F91FF90EF90DF90CF90BF90AF909F9087
:102020008F9008953F924F925F926F927F928F921E
:102030009F92AF92BF92CF92DF92EF92FF920F9357
:102040001F93CF93DF93CDB7DEB764970FB6F894A5
:10205000DEBF0FBECDBF382E809172089091C108AF
:10206000911146C0853008F049C02AE1321246C0BD
:102070008091040290910502843B910598F01092A2
:102080000502109204020E94B4518B019C01D12CD4
:10209000C12CEE24E39450E040E063E090E080E067
:1020A0000E94A46180917008909171088C329140D7
:1020B00038F010927108109270088BE10E94121093
:1020C00064960FB6F894DEBF0FBECDBFDF91CF91FF
:1020D0001F910F91FF90EF90DF90CF90BF90AF9046
:1020E0009F908F907F906F905F904F903F9008955A
:1020F000853020F48AE1381609F491C1FE01319649
:10210000FC8BEB8B88E011928A95E9F70E94135BB8
:10211000882341F080915A0B8C3009F464C038F464
:102120008B30F1F060E070E080EC9FE741C08551BA
:102130008230C0F71091570B612F70E0762F662721
:1021400066277F778091580B682B90E080E00E9493
:1021500066772DEC3CEC4CEC5DE30E94C7775FC0EA
:102160006091570B70E090E080E00E9466774B0131
:102170005C011091580B17FF0AC0AC019B0160E095
:1021800070E080E89FEB0E940E794B015C011F70AC
:10219000612F70E090E080E00E9468772DEC3CECCD
:1021A0004CEC5DE30E94C777A50194010E940F7972
:1021B0006093FA0C7093FB0C8093FC0C9093FD0CD5
:1021C0000E94135B882351F080915A0B8B3030F0C2
:1021D0008D3048F18551823008F490C160E070E0A4
:1021E00080EC9FE73CC01091570B612F70E090E0AE
:1021F00080E00E9466774B015C016091580B6F7024
:1022000070E090E080E00E9468772DEC3CEC4CECB4
:102210005DE30E94C777A50194010E940F7917FF23
:10222000C7CF9058C5CF6091560B70E090E080E02A
:102230000E9468772DEC3CEC4CEC5DE30E94C77784
:102240004B015C016091550B70E090E080E00E94D2
:1022500068779B01AC01C501B4010E940F796093BE
:10226000FE0C7093FF0C8093000D9093010D0AEF0C
:102270001CE028E7E22E2BE0F22E3BE3432E34E075
:10228000532E42E3642E44E0742E56EBC52E5AE0E2
:10229000D52E6FE2A62E64E0B62E7CE2872E74E087
:1022A000972EF8018085FBE13F124DC1883F30F544
:1022B000F80191858093440E913009F031C1D0929C
:1022C000430EC092420E10924F0F1092510F109277
:1022D000500FB092590FA092580F90925B0F8092BE
:1022E0005A0F61E0C8010A960E94C6588F3E31F02D
:1022F000005F1F4FFEE00A331F0799F688E0EAEF00
:10230000FCE0DE01119601900D928A95E1F789803B
:102310009A80AB80BC804090EB085090EC086090B5
:10232000ED087090EE08A3019201C501B4010E946E
:102330000E796B017C0120E030E0A9010E94237A34
:10234000181624F0F7FAF094F7F8F094A501940128
:10235000C501B4010E94787AA3019201882309F48F
:1023600022C1C301B2010E94787A882309F422C1F4
:10237000A7019601609167087091680880916908CB
:1023800090916A080E94617787FD14C12BE1321693
:1023900009F410C1CD80DE80EF80F8848090EF08D2
:1023A0009090F008A090F108B090F208A501940177
:1023B000C701B6010E940E792B013C0120E030E0FC
:1023C000A9010E94237A181624F077FA709477F8FE
:1023D0007094A7019601C701B6010E94787AA50101
:1023E0009401882309F41EC1C501B4010E94787AC2
:1023F000882309F41EC1A301920160916B087091BA
:102400006C0880916D0890916E080E94617787FD3D
:1024100010C19BE1391609F40CC11092720883B106
:1024200090916608892780FD03C08BE138120EC0A9
:1024300083B181708983198ACE010196988B8F8729
:1024400087E08E87CE010E960E94506683B19091F0
:102450006608892785FD03C09BE1391210C083B14E
:1024600085FB882780F98983198ACE010196988B8C
:102470008F8788E08E87CE010E960E94506683B1CA
:1024800090916608892784FD03C0EBE13E120FC0DE
:1024900083B1829581708983198ACE010196988BC8
:1024A0008F8789E08E87CE010E960E9450668091BC
:1024B000030190916508892785FD03C0FBE13F1268
:1024C00011C08091030185FB882780F98983198ACF
:1024D000CE010196988B8F8783E18E87CE010E9671
:1024E0000E94506683B181738093660880910301D6
:1024F0008072809365081092C108BACD6091550B27
:102500007091560B76276727762790E080E00E942F
:1025100066772DEC3CEC4CEC5DE30E94C7779FCED8
:10252000F092430EE092420E10924F0F1092510F14
:102530001092500F5092590F4092580F70925B0FAB
:1025400060925A0FCECE883F08F0D8CEF801918520
:102550008093440E9130A1F4D092430EC092420E6B
:1025600010924F0F1092510F1092500FB092590FBE
:10257000A092580F90925B0F80925A0F60E0B2CEFB
:10258000F092430EE092420E10924F0F1092510FB4
:102590001092500F5092590F4092580F70925B0F4B
:1025A00060925A0FEBCFC301B2010E94787A882360
:1025B00009F4DECE8092EB089092EC08A092ED0830
:1025C000B092EE088E01025F1F4F95E0D92EF80100
:1025D0002D2D11922A95E9F7A5019401C501B401A9
:1025E0000E94787A81110DC083E08E87D98A81E0BC
:1025F00090E08C0F9D1F988B8F87C8010E945066BA
:10260000C9CE83E08E8786E0898B85E0EEE7F3E034
:10261000DE01199601900D928A95E1F7DA8ACE01D2
:102620000996E9CFC501B4010E94787A882309F49C
:10263000E2CEC092EF08D092F008E092F108F0925A
:10264000F2088E01025F1F4F85E0B82EF8012B2D96
:1026500011922A95E9F7A7019601C701B6010E94D8
:10266000787A81110BC084E08E87B98ACE010596F5
:10267000988B8F87C8010E945066CFCE84E08E87EA
:1026800086E0898B85E0E3E8F3E0DE0119960190AE
:102690000D928A95E1F7BA8ACE010996E9CFCF93D8
:1026A000DF93EC01FB0144815581608171810E94BF
:1026B000190D811103C0CE010E94DF0CCE01DF9104
:1026C000CF910895FC0180819181009711F00C94C5
:1026D0007D7C0895EF92FF920F931F93CF93DF932A
:1026E000EC01198218821B821A821D821C826115DC
:1026F000710521F18B01FB0101900020E9F7319771
:102700007F01E61AF70AB7010E94F10C811109C096
:10271000CE01DF91CF911F910F91FF90EF900C941C
:10272000DF0CFD82EC82B80188819981DF91CF9125
:102730001F910F91FF90EF900C941F7EDF91CF912E
:102740001F910F91FF90EF90089560E976E00C944F
:10275000CD080F931F93CF93DF93EC010E94CD0818
:102760008C01CE010E94A513800F911FDF91CF91A4
:102770001F910F910895DC0189E393E08D939D9360
:1027800084E0FB0101900D928A95E1F70895EF92A4
:10279000FF920F931F93CF93DF9300D01F92CDB77B
:1027A000DEB78C017B01FB0184858830A8F089E3CA
:1027B00093E0F80191838083128213821482158240
:1027C000C8010F900F900F900F90DF91CF911F9144
:1027D0000F91FF90EF90089580E591E00E940B57D4
:1027E000F70184859091180A24E030E0AE014F5F34
:1027F0005F4F60E271E09D3311F06CE070E00E9489
:10280000360ABE016F5F7F4FC8010E94BB13D8CF4D
:102810001F920F920FB60F9211240BB60F922F93A7
:102820003F934F935F936F937F938F939F93AF9358
:10283000BF93EF93FF9388E79BE00E944703FF91CC
:10284000EF91BF91AF919F918F917F916F915F9128
:102850004F913F912F910F900BBE0F900FBE0F9095
:102860001F9018951F920F920FB60F9211240BB65E
:102870000F922F933F934F935F936F937F938F9319
:102880009F93AF93BF93EF93FF9388E79BE00E94E2
:10289000D302FF91EF91BF91AF919F918F917F9163
:1028A0006F915F914F913F912F910F900BBE0F90C1
:1028B0000FBE0F901F9018951F920F920FB60F9298
:1028C00011240BB60F922F933F934F935F936F9307
:1028D0007F938F939F93AF93BF93EF93FF9389E180
:1028E0009AE00E944703FF91EF91BF91AF919F91B2
:1028F0008F917F916F915F914F913F912F910F90A9
:102900000BBE0F900FBE0F901F9018951F920F9245
:102910000FB60F9211240BB60F922F933F934F9344
:102920005F936F937F938F939F93AF93BF93EF9337
:10293000FF9389E19AE00E94D302FF91EF91BF914A
:10294000AF919F918F917F916F915F914F913F9147
:102950002F910F900BBE0F900FBE0F901F901895E8
:102960001F920F920FB60F9211240BB60F922F9356
:102970003F934F935F936F937F938F939F93AF9307
:10298000BF93EF93FF9386EB9AE00E944703FF917A
:10299000EF91BF91AF919F918F917F916F915F91D7
:1029A0004F913F912F910F900BBE0F900FBE0F9044
:1029B0001F9018951F920F920FB60F9211240BB60D
:1029C0000F922F933F934F935F936F937F938F93C8
:1029D0009F93AF93BF93EF93FF9386EB9AE00E9490
:1029E000D302FF91EF91BF91AF919F918F917F9112
:1029F0006F915F914F913F912F910F900BBE0F9070
:102A00000FBE0F901F901895282F30E0F901E65265
:102A1000FC4F9491F901E556FB4F44912B5A3B4FE3
:102A2000F9012491222309F435C0992311F1915021
:102A30009231F8F4E92FF0E08827EE5DFA4E8F4FDF
:102A40000C94D27B5315571534154B154F1539156A
:102A50005A15601564156A156E15721578157C1572
:102A60003915801586158A15809180008F7780939F
:102A70008000E22FF0E0EE0FFF1FEF5DFB4FA5910E
:102A8000B4918FB7F894EC91611148C040954E23F2
:102A90004C938FBF0895809180008F7DE8CF809107
:102AA0008000877FE4CF84B58F7784BDE2CF84B583
:102AB0008F7DFBCF8091B0008F778093B000D9CF0E
:102AC0008091B0008F7DF9CF809190008F778093B7
:102AD0009000CFCF809190008F7DF9CF80919000B2
:102AE000877FF5CF8091A0008F778093A000C1CF22
:102AF0008091A0008F7DF9CF8091A000877FF5CFD6
:102B0000809120018F7780932001B3CF80912001A5
:102B10008F7DF9CF80912001877FF5CF4E2BB8CFE5
:102B20001F920F920FB60F9211240BB60F922F9394
:102B30003F934F935F936F937F938F939F93AF9345
:102B4000BF93EF93FF938091DF089091E008A091ED
:102B5000E108B091E208892B8A2B8B2BE1F190914F
:102B6000CE08E091CF08F091D0088081892780833A
:102B70008091DF089091E008A091E108B091E2080F
:102B8000181619061A061B069CF48091DF0890910E
:102B9000E008A091E108B091E2080197A109B1090C
:102BA0008093DF089093E008A093E108B093E208D7
:102BB000FF91EF91BF91AF919F918F917F916F9115
:102BC0005F914F913F912F910F900BBE0F900FBED1
:102BD0000F901F90189580910702E0E2F4E0E491D5
:102BE0009FEF90930702E230E9F040F4EE2389F082
:102BF000E13091F060E00E940415DACFE43049F151
:102C000010F1E530B9F7909173009D7F90937300B8
:102C1000F1CF10926E00EECF90916F009D7F909358
:102C20006F00E8CF909170009D7F9093700091E0CD
:102C30009093B0009091B100987F94609093B10010
:102C40001092B300D7CF909171009D7F9093710047
:102C5000D1CF909172009D7F90937200CBCF0F9354
:102C60001F93CF93DF9300D000D0CDB7DEB7009194
:102C7000640893B1907C091302C08A31E9F1182FDE
:102C800083B1807C09F443C060E084E20E940415B3
:102C90000E94F10783B1082706FD02C01B3181F4B1
:102CA00083B186FB882780F98E831C82CE0106962D
:102CB0009B838A8386E08983CE0101960E945066B9
:102CC00083B190916408892787FD02C01B3181F48C
:102CD00083B1881F8827881F8E831C82CE010696A9
:102CE0009B838A8385E08983CE0101960E9450668A
:102CF00083B1807C8093640826960FB6F894DEBF7B
:102D00000FBECDBFDF91CF911F910F91089561E06C
:102D100084E20E940415BECF3FB7F8948091C708A3
:102D20009091C808A091C908B091CA0826B5A89B7F
:102D300005C02F3F19F00196A11DB11D3FBFBA2F4D
:102D4000A92F982F8827BC01CD01620F711D811D0D
:102D5000911D42E0660F771F881F991F4A95D1F792
:102D600008958F929F92AF92BF92CF92DF92EF928F
:102D7000FF924B015C010E948C166B017C010E944A
:102D80008C166C197D098E099F09683E7340810578
:102D90009105A8F321E0821A9108A108B10888EEF4
:102DA000C80E83E0D81EE11CF11C81149104A1041B
:102DB000B10429F7FF90EF90DF90CF90BF90AF90D4
:102DC0009F908F9008952FB7F8946091C3087091E9
:102DD000C4088091C5089091C6082FBF0895EF924E
:102DE000FF920F931F93CF93DF93EC018B017A0136
:102DF0000E94E316688B798B8A8B9B8B8C819D81DB
:102E0000DC01ED91FC910280F381E02DA701B80176
:102E1000DF91CF911F910F91FF90EF9019941F9325
:102E2000CF93DF93EC01162F0E94E316688B798B0A
:102E30008A8B9B8B8C819D81DC01ED91FC910190B3
:102E4000F081E02D612FDF91CF911F911994BF92F6
:102E5000CF92DF92EF92FF920F931F93CF93DF9366
:102E6000B82E0E946D0A8C010E94E3166B017C0152
:102E70008B2D0E946D0AEC010817190761F00E9462
:102E8000E3168E016C197D098E099F09613273402A
:102E90008105910568F3CE01DF91CF911F910F91CC
:102EA000FF90EF90DF90CF90BF9008951F93CF9346
:102EB000DF93182F87E0189FE0011124CA59D64FDD
:102EC00088819981009761F480E591E00E940B5719
:102ED000812F0E9427172E81821B91099983888355
:102EE000DF91CF911F910895FC018485883010F403
:102EF0000C94561790E080E008951F920F920FB641
:102F00000F9211242F933F938F939F93AF93BF936F
:102F10008091C3089091C408A091C508B091C608DB
:102F20003091C20823E0230F2D3758F50196A11DDB
:102F3000B11D2093C2088093C3089093C408A09346
:102F4000C508B093C6088091C7089091C808A091A1
:102F5000C908B091CA080196A11DB11D8093C70888
:102F60009093C808A093C908B093CA08BF91AF91C5
:102F70009F918F913F912F910F900FBE0F901F90B7
:102F8000189526E8230F0296A11DB11DD2CF1F92DE
:102F90000F920FB60F9211248F9381E08093C10896
:102FA0008F910F900FBE0F901F9018951F920F9248
:102FB0000FB60F9211240BB60F922F933F934F939E
:102FC0005F936F937F938F939F93AF93BF93EF9391
:102FD000FF930E94C717FF91EF91BF91AF919F910F
:102FE0008F917F916F915F914F913F912F910F90B2
:102FF0000BBE0F900FBE0F901F901895FC01A4817F
:10300000B5818C9185FFFDCFA281B3816C93A481A2
:10301000B5818C9187FFFDCF0280F381E02D808107
:10302000082E000C990B0895CF92DF92EF92FF9239
:10303000CF93DF93FC0120892223D9F06A017B0121
:10304000EC01E096B70188279927CE010E94FE1770
:1030500099278F2D7E2D6D2DCE010E94FE17B60172
:10306000CE01DF91CF91FF90EF90DF90CF900C9445
:10307000FE17DF91CF91FF90EF90DF90CF900895F2
:10308000EF92FF920F931F93CF93DF93FC01208960
:10309000222379F1EC01EE24E394F12C8F01005D01
:1030A0001F4F9DA1EBA1FCA18081970102C0220FBF
:1030B000331F9A95E2F7209530958223808365E04F
:1030C00070E0C8010E94FE1770E060E0C8010E9435
:1030D000FE172DA1EBA1FCA19081A70102C0440F16
:1030E000551F2A95E2F7942B908380FF02C00000C1
:1030F000D8CFDF91CF911F910F91FF90EF9008955E
:103100002F923F924F925F926F927F928F929F92F7
:10311000AF92BF92CF92DF92EF92FF920F931F93E5
:10312000CF93DF9300D01F921F92CDB7DEB7DC01A3
:103130005096EC91EE2309F4ADC018016A017B01B1
:103140009D838C838901F901E20DF31DFB83EA83E2
:103150002A013B01AA24A394B12C4C01F0E38F0E69
:10316000911C4A815B810417150709F475C0AC8175
:10317000BD8150968C915097882309F465C0F80161
:10318000F081F98395968C9195979396ED91FC91AA
:103190002081A50102C0440F551F8A95E2F7CA019C
:1031A000809590958223808366E070E0C4010E9440
:1031B000FE17AC81BD8195968C9195979396ED9174
:1031C000FC9194972081A50102C0440F551F8A9558
:1031D000E2F7CA01822B8083000095968C91959727
:1031E0009396ED91FC912081D50102C0AA0FBB1FDF
:1031F0008A95E2F7CD01809590958223808362E0E5
:1032000070E0C4010E94FE17B301A2018C819D8170
:103210000E941418B9816B2F70E0C4010E94FE1740
:10322000EC81FD8185A103A0F4A1E02D2081A50101
:1032300002C0440F551F8A95E2F7CA01822B808392
:103240008C819D810E9440180F5F1F4F5FEF451AD0
:10325000550A650A750A85CFC701B601620D731D4F
:10326000811D911D0F900F900F900F900F90DF9187
:10327000CF911F910F91FF90EF90DF90CF90BF9073
:10328000AF909F908F907F906F905F904F903F9006
:103290002F90089560E070E0CB01E4CFFC018081C5
:1032A00091810C9485780F931F93CF93DF931F9296
:1032B0001F92CDB7DEB78B019A838983CE01019629
:1032C0000E944E19F8018083C8010F900F90DF9182
:1032D000CF911F910F910895AF92BF92CF92DF923D
:1032E000EF92FF920F931F93CF93DF931F921F9242
:1032F000CDB7DEB78B016B0124E0C20ED11C7B0180
:103300005C01A61AB70AC5018E0D9F1D9A83898399
:10331000CE0101960E944E19F70181937F01EC15B1
:10332000FD0589F7C8010F900F90DF91CF911F9194
:103330000F91FF90EF90DF90CF90BF90AF900895E6
:103340001F93CF93DF93EC01162F0E944E19811724
:1033500029F0612F888199810E948D78CE01DF91BB
:10336000CF911F9108950F931F93CF93DF931F92D7
:103370001F92CDB7DEB78B019A838983FB016081F1
:10338000CE0101960E94A019C8010F900F90DF9105
:10339000CF911F910F910895AF92BF92CF92DF927C
:1033A000EF92FF920F931F93CF93DF931F921F9281
:1033B000CDB7DEB78B016B0124E0C20ED11C7B01BF
:1033C0005C01A61AB70AC5018E0D9F1D9A838983D9
:1033D000F70161917F01CE0101960E94A019EC14C2
:1033E000FD0489F7C8010F900F90DF91CF911F91D5
:1033F0000F91FF90EF90DF90CF90BF90AF90089526
:10340000AF92BF92CF92DF92EF92FF920F931F93F2
:10341000CF93DF931F921F92CDB7DEB78B016B0165
:1034200024E0C20ED11C7B015C01A61AB70AC501BB
:103430008E0D9F1D9A838983F70161917F01CE01D3
:1034400001960E94A019EC14FD0489F7C8010F90A1
:103450000F90DF91CF911F910F91FF90EF90DF9030
:10346000CF90BF90AF900895CF92DF92EF92FF92EE
:103470000F931F93CF93DF93CDB7DEB767970FB648
:10348000F894DEBF0FBECDBFFC0101900020E9F72C
:103490003197E81BF90B09F45DC0709708F05AC02A
:1034A000009709F457C0FC0130E020E0419144232B
:1034B00029F04E32D9F72F5F3F4FF8CF2330310537
:1034C00009F04AC07B01BC01CE0101960E941F7E1B
:1034D00068E873E0CE0101960E942877FE01749699
:1034E00024E0DF011D922A95E9F78F016E01B8E112
:1034F000CB0ED11C4AE050E070E060E00E94F17514
:10350000F80161938F0168E873E090E080E00E9429
:1035100028770C151D0571F78C899D89AE89BF89A7
:10352000888B998BAA8BBB8BBE01605F7F4FC701D5
:103530000E94001A82E067960FB6F894DEBF0FBEB5
:10354000CDBFDF91CF911F910F91FF90EF90DF9052
:10355000CF90089581E0EFCF80E0EDCF2F923F92A2
:103560004F925F926F927F928F929F92AF92BF9293
:10357000CF92DF92EF92FF920F931F93CF93DF933F
:10358000CDB7DEB7C651D3400FB6F894DEBF0FBE3D
:10359000CDBF80911A0290911B02A0911C02B091A4
:1035A0001D02CC5FDC4F88839983AA83BB83C45000
:1035B000D34089839A83AB83BC838E010F5F1F4FF7
:1035C000B80180E290E00E94001ACE018C5F9C4F0F
:1035D0000E946E4F86E0F80111928A95E9F7680122
:1035E000F12CE12CCF5BDE4FF982E882C154D1404F
:1035F000CE018F5B9E4F0E944E19F60181936F01A1
:10360000FFEFEF1AFF0A26E0E216F10459F786E011
:10361000F801AAE0B2E001900D928A95E1F762E12B
:1036200070E0CE01885F9C4F0E94F352BE01685F3C
:103630007C4FC8010E94BB138B819C81AD81BE81F0
:103640008093F60C9093F70CA093F80CB093F90CC0
:103650006CE270E0CE01845F9C4F0E94F352BE0189
:10366000645F7C4FC8010E94BB138B819C81AD813C
:10367000BE818093EA0C9093EB0CA093EC0CB0937A
:10368000ED0C0E94A253FE01EF57FD4F1F0188234E
:1036900009F431C266E179E0CF010E941953B80103
:1036A0008BE799E00E9453198981FE01ED54FD4F8B
:1036B0005F0181FF47C260E878E0CF010E941953A3
:1036C0008BE0F80111928A95E9F7680130E8E32E62
:1036D00039E0F32ECF5BDE4FF982E882C154D1404E
:1036E000CE018F5B9E4F0E944E19F60181936F01B0
:1036F000FFEFEF1AFF0A2BE8E21629E0F20651F776
:103700008BE0F801DE01A750BD4F01900D928A9524
:10371000E1F78BE0FE01E750FD4FA6E9BCE0019028
:103720000D928A95E1F784E1F80111928A95E9F703
:1037300068012CE6E22E28E0F22ECF5BDE4FF98204
:10374000E882C154D140CE018F5B9E4F0E944E193A
:10375000F60181936F01FFEFEF1AFF0A20E8E216EE
:1037600028E0F20651F784E1F801DE01AB51BD4FCC
:1037700001900D928A95E1F784E1FE01EB51FD4F36
:10378000AFEBBCE001900D928A95E1F760EB79E038
:10379000CE01805F9C4F0E94F352BE01605F7C4F60
:1037A000C8010E94BB138B819C81AD81BE81809337
:1037B000F00C9093F10CA093F20CB093F30C1982DF
:1037C0001A821B821C82780194E6C92E98E0D92EB9
:1037D000CF5BDE4FD982C882C154D140CE018F5B0E
:1037E0009E4F0E944E19F70181937F01FFEFCF1A80
:1037F000DF0A28E6C21628E0D20651F749805A802F
:103800006B807C8019821A821B821C827801CF5BBC
:10381000DE4FD982C882C154D140CE018F5B9E4F0A
:103820000E944E19F70181937F01FFEFCF1ADF0A43
:103830002CE6C21628E0D20651F7C980DA80EB8068
:10384000FC80C414D504E604F70418F0C12CD12C74
:1038500076014092650C5092660C6092670C7092F3
:10386000680CC092690CD0926A0CE0926B0CF092DA
:103870006C0C80E090E0A0E8BFE380936708909331
:103880006808A0936908B0936A0880936B089093C6
:103890006C08A0936D08B0936E081982B8018EE78A
:1038A00099E00E9453198981823008F01982398188
:1038B000CA5EDC4F3883C651D34030936F081982FB
:1038C000B8018CE799E00E94531989818093150A09
:1038D0001982B8018FE799E00E94531989818230DB
:1038E00008F0198289818093160A80E491E0F8013A
:1038F0009C01119221503040E1F7CC5EDC4F1983DE
:103900000883C451D3408AE4882E84E0982ECF5B8C
:10391000DE4F99828882C154D140CE018F5B9E4F89
:103920000E944E19CC5EDC4FE881F981C451D3402E
:103930008193CC5EDC4FF983E883C451D340FFEF21
:103940008F1A9F0A2AE8821625E0920601F780E482
:1039500091E0F801DE01AF5BBE4F01900D9201973F
:10396000E1F780E491E0FE01EF5BFE4FA2E0BDE0F5
:1039700001900D920197E1F78091160A1F928F93A3
:103980001F92CA5EDC4F3881C651D3403F93FF92ED
:10399000EF92DF92CF927F926F925F924F92CE0121
:1039A0008B519D4F9F938F9344969F938F938091BC
:1039B0000F021F928F9380910E021F928F9380911E
:1039C0000D021F928F9380910C021F928F93809112
:1039D0000B021F928F9380910A021F928F93BF92C6
:1039E000AF923F922F92C15FDC4F8881CF50D3407E
:1039F0001F928F93C25FDC4F8881CE50D3401F92BD
:103A00008F93C35FDC4F8881CD50D3401F928F933B
:103A1000C45FDC4F8881CC50D3401F928F93C55F29
:103A2000DC4F8881CB50D3401F928F93C65FDC4F11
:103A30008881CA50D3401F928F93C75FDC4F888123
:103A4000C950D3401F928F93C85FDC4F8881C85004
:103A5000D3401F928F938091150A282F082E000CB7
:103A6000330B3F938F93C95FDC4F8881C750D3409E
:103A70001F928F93CA5FDC4F8881C650D3401F923C
:103A80008F93CB5FDC4F8881C550D3401F928F93BB
:103A9000CC5FDC4F8881C450D3401F928F938AE85B
:103AA00093E09F938F931F930F930E94407E0FB6D6
:103AB000F894DEBF0FBECDBFB80186EB9AE00E943E
:103AC000A913CA5EDC4F0FB6F894DEBF0FBECDBFA0
:103AD000DF91CF911F910F91FF90EF90DF90CF90EA
:103AE000BF90AF909F908F907F906F905F904F901E
:103AF0003F902F90089561E0CF010E94665384E0CB
:103B0000F101A0E0B2E001900D928A95E1F7F10198
:103B100083811F928F9382811F928F9381811F9245
:103B20008F9380811F928F938BE393E09F938F936A
:103B30003F922F920E94407E0FB6F894DEBF0FBED8
:103B4000CDBFADCD62E578E0CF010E94F352F50123
:103B500083811F928F9382811F928F9381811F9205
:103B60008F9380811F928F938BE393E09F938F932A
:103B7000BF92AF920E94407E0FB6F894DEBF0FBE98
:103B8000CDBF9ECDDC0150E0EEECF3E081E0861786
:103B900030F49491490F511D8F5F3196F8CF633007
:103BA00038F0CD0183709927892B11F44F5F5F4F57
:103BB0009D012D5F3F4F36952795369527956DE6EC
:103BC00071E0A69FC001A79F900DB69F900D112494
:103BD0000197820F931F840F951F08954F925F9254
:103BE0006F927F928F929F92AF92BF92CF92DF920D
:103BF000EF92FF92CF93DF93EC016A017B012CE3FC
:103C0000822E912CA12CB12CCB01BA01A5019401DB
:103C10000E94AB786D83CA01B901A50194010E948D
:103C2000AB786C83C701B60120E13EE040E050E094
:103C30000E94AB78CA01B90128E130E040E050E0D1
:103C40000E94AB786B83C701B60120E831E541E003
:103C500050E00E94AB78188263E9862E6EEF962EB4
:103C6000AA24AA94BA2C8881782F7370C12CD12CE5
:103C70007601C394772319F0C12CD12C760126014B
:103C800037019DE6490E91E0591E611C711C2415F7
:103C900035054605570578F0240135014C185D08B7
:103CA0006E087F08730162012C0D3D1D4E1D5F1DC6
:103CB0008F5F8883D8CF81E089836981862F815087
:103CC000990BFC01E253FC4FE491711103C0623087
:103CD00009F4EF5F8E2F90E0B0E0A0E028173907DD
:103CE0004A075B0738F0281B390B4A0B5B0B6F5FE9
:103CF0006983E3CF2F5F2A83DF91CF91FF90EF900D
:103D0000DF90CF90BF90AF909F908F907F906F90FB
:103D10005F904F9008951092090A81E08093E8091E
:103D20001092E30961E084E10E94041561E085E1FD
:103D30000E940415E9EBF0E080818E7F8083808112
:103D40008D7F808388E48093B80085E48093BC00F5
:103D50000895CF93DF9391E090937D088823B9F085
:103D6000C091B800D091BA008091BC008A7B80934A
:103D7000BC0060E084E10E94041560E085E10E94DF
:103D800004150E948B1ED093BA00C093B800DF9137
:103D9000CF91089585ED8093BC0080910B0A90919E
:103DA0000C0AA0910D0AB0910E0A0796A11DB11D33
:103DB00023E0B695A795979587952A95D1F72091F9
:103DC000BC0024FD03C01092090A089540910B0A1B
:103DD00050910C0A60910D0A70910E0A452B462BEA
:103DE000472B69F30097A105B10541F02AE22A9516
:103DF000F1F700C00197A109B109E1CF80910A0A4A
:103E00000C94A91E1F920F920FB60F9211240BB69D
:103E10000F922F933F934F935F936F937F938F9363
:103E20009F93AF93BF93EF93FF938091B900887FE7
:103E3000803609F44DC008F040C0883209F4A9C0AA
:103E400028F5803109F49DC0C8F4882309F4FBC02B
:103E5000883009F496C0FF91EF91BF91AF919F9187
:103E60008F917F916F915F914F913F912F910F9023
:103E70000BBE0F900FBE0F901F901895883109F45C
:103E800088C0803241F78093E70914C0803409F478
:103E90009DC040F48033B9F38833E9F68093E70995
:103EA00085ECB0C0803509F485C0883509F496C02A
:103EB000883489F60E94CA1ECECF883909F48CC096
:103EC00038F5883729F050F4883611F0803719F624
:103ED00083E08093090A1092C00857C0883809F41B
:103EE0007BC0803919F0803809F0B5CF8091C008C7
:103EF000803208F071C0E091C00881E08E0F80939D
:103F0000C0088091BB00F0E0E056F74F80833DC0D1
:103F1000803B39F0E0F4803A09F479C0883A09F03E
:103F20009ACF84E08093090A10929F0810929E080D
:103F3000E091170CF091180C199580919E08811151
:103F40000FC081E080939E0810927E0809C0803CDB
:103F500009F4A6CF883C09F4A3CF883B09F07BCFB6
:103F6000E0919F0881E08E0F80939F08F0E0E25877
:103F7000F74F80818093BB0090919F0880919E08AD
:103F800029C08091E4098093BB0085EC8093BC003C
:103F900062CF9091E6098091E509981758F5E09174
:103FA000E60981E08E0F8093E609F0E0ED53F64FCD
:103FB0008081E9CFE091E60981E08E0F8093E609E8
:103FC0008091BB00F0E0ED53F64F80839091E609BD
:103FD0008091E5099817C8F285E8D8CFE091E60905
:103FE00081E08E0F8093E6098091BB00F0E0ED53F5
:103FF000F64F80838091E80981115CCF81E0809346
:10400000E30984EA8093BC001092090A24CF85EC6E
:104010008093BC001092090A8091C008803230F46D
:10402000E091C008F0E0E056F74F10826091C008C0
:1040300070E0E091150CF091160C80EA98E019956B
:104040001092C00808CF1092E70934CF6F927F9288
:104050008F929F92AF92BF92CF92DF92EF92FF9298
:104060000F931F93CF93DF93CDB7DEB72D970FB686
:10407000F894DEBF0FBECDBF9B878A875B015D874B
:104080004C877C0199878887892B19F410E000E020
:1040900044C0CE0108960E9428094C01F501008118
:1040A0001181C280D3803C016E0C7F1CF801E80DA9
:1040B000F91DEC15FD0598F0CE0108960E9428091F
:1040C0009C012F5F3F4F2C0D3D1DF5014481558113
:1040D0004217530708F049C081E08087D7CF80811D
:1040E000811112C0FF82EE82CE0106960E9428093D
:1040F0008816990649F4D801F7016E167F0651F02B
:104100009D9181919817C9F3F80181918F018111D7
:10411000FBCFCCCF0115110579F2CE010A960E9492
:104120002809202F1A830983482F3A81592F60E0EC
:10413000CE010C960E947D0581E0012B09F480E000
:104140002D960FB6F894DEBF0FBECDBFDF91CF9195
:104150001F910F91FF90EF90DF90CF90BF90AF90A5
:104160009F908F907F906F90089533832283C11426
:10417000D10409F48BCFF701D601AC014E0D5F1DC0
:104180004E175F0719F021912D93FACF8C0D9D1DCD
:10419000FC0110828601C1CF9C01FB01309761F0C8
:1041A000948190789A609483C901330FAA0BBB0B5A
:1041B00080839183A283B38308950F931F93CF933A
:1041C000DF9300D000D000D0CDB7DEB76115710508
:1041D00031F0009779F4FB018481807884832996FB
:1041E0000FB6F894DEBF0FBECDBFDF91CF911F9108
:1041F0000F9108958C01998788877F836E83CE0104
:1042000008960E942809202F1A830983482F3A8193
:10421000592F61E0CE0106960E947D05E0CFFA019C
:10422000309741F0248120782C602483608371834F
:104230008283938308950F931F93CF93DF93D0E0EE
:10424000C0E06115710591F08B01FC01C081D18145
:10425000209761F06E817F81C8010E94167E892BB4
:1042600029F0CE010E948F08EC01F2CFCE01DF9140
:10427000CF911F910F910895FB0101900020E9F764
:104280003197AF01461B570B0C940C051F93CF932E
:10429000DF93E6E5F3E01281112379F03296218174
:1042A0006213F9CFEC016CE50E94F404612FCE019A
:1042B000DF91CF911F910C94F4046111F9CF67E65F
:1042C00073E0DF91CF911F910C943C214F925F924C
:1042D0006F927F928F929F92AF92BF92CF92DF9216
:1042E000EF92FF920F931F93CF93DF93CDB7DEB77B
:1042F000A1970FB6F894DEBF0FBECDBF7C018B0136
:10430000FC0184818F77863009F45CC160F48230CF
:1043100098F0C280D380A080B180843008F023C19F
:10432000A601B501CAC08C3051F148F4883009F4B7
:1043300044C18A3009F42AC16EE673E04AC1803272
:1043400009F4DDC08034C1F76BE5C8010E94F404B4
:10435000F701E080F180E114F10409F4B2C0B80182
:10436000C7010E946621C7010E948F087C01892B2A
:1043700009F4A7C06CE2C8010E94F404ECCF80806D
:104380009180A280B380A5019401C501B4010E946F
:1043900061778111D1CF20E030E0A901C501B401DE
:1043A0000E946177882379F0A5019401C501B401C9
:1043B0000E940F799B01AC01C501B4010E94617795
:1043C000882309F4B9CF20E030E0A901C501B40188
:1043D0000E94617787FF08C06DE2C8010E94F40463
:1043E000B7FAB094B7F8B0946E01F7E1CF0ED11CD4
:1043F000B501A401C6010E943F064F89588D698D01
:104400007A8DC8010E943105F9A0FF2091F16B8DD2
:104410007C8D8D8D9E8D4E0121E1820E911CEF2CA5
:1044200054012AE0422E512C612C712CEA94EFEFBA
:10443000EE1659F0A30192010E94AB78605DF40181
:1044400062934F01B901CA01F1CF8F2D90E0BC01F9
:1044500060957095F501E81BF90B31978EE280832A
:1044600044275527461B570B6A0D7B1DC8010E9428
:104470000C058F8D98A1892B41F165E6C8010E943A
:10448000F404EF8CF8A0C701F7FE08C06DE2C80184
:104490000E94F404882799278E199F09F6012AE0C3
:1044A00030E0B9010E94BE7B805D8293CB01009712
:1044B000C1F7A6014E1B5F0BBF01C8010E940C058E
:1044C00004C06DE5C8010E94F404F801848195815F
:1044D000A1960FB6F894DEBF0FBECDBFDF91CF918E
:1044E0001F910F91FF90EF90DF90CF90BF90AF9012
:1044F0009F908F907F906F905F904F9008956BE7A3
:10450000C8010E94F404F701E080F180E114F10495
:1045100041F1F701A680B78062E2C8010E94F4046D
:104520006501F60161916F01662321F0C8010E94C7
:104530004621F7CF62E2C8010E94F4046AE3C80191
:104540000E94F404B801C7010E946621C7010E94BD
:104550008F087C01892B29F06CE2C8010E94F404C9
:10456000D5CF6DE7AFCF62E2C8010E94F4047501B8
:10457000CE0CDF1CCE14DF0439F0F70161917F010E
:10458000C8010E944621F6CF62E29CCFC080D18054
:10459000E280F380B701A601F7FE0BC06DE2C8010F
:1045A0000E94F40444275527BA014C195D096E098D
:1045B0007F09C8010E94310588CF40815181628105
:1045C0007381F7CF808163E773E0811102C068E7F0
:1045D00073E0C8010E943C2178CFAF92BF92CF9286
:1045E000DF92EF92FF920F931F93CF93DF9300D050
:1045F00000D000D01F921F92CDB7DEB7FA013097DE
:1046000009F455C0DC01ED90FC90E114F104A9F42B
:1046100084818078848381E02B960FB6F894DEBF86
:104620000FBECDBFDF91CF911F910F91FF90EF9003
:10463000DF90CF90BF90AF9008959B015B01FC018C
:10464000C480D5805B874A87FF82EE82D986C88680
:10465000BE016A5F7F4FC9010E94C1078C01892B8F
:10466000A9F4D50112960D911C911397C6010196DC
:10467000800F911F14962D913C911597281739079B
:10468000C0F481E018968C9310E000E0202F1A838C
:1046900009834C2DDC82CB823A815C8160E0CE01C3
:1046A0000A960E947D0581E0012B09F0B5CF80E0DC
:1046B000B3CFF501938382830115110539F3F70117
:1046C000D80197012C0D3D1D2E173F0719F0819140
:1046D0008D93FACFF801EC0DFD1D1082D7CFCF924C
:1046E000DF92EF92FF920F931F93CF93DF9300D04F
:1046F00000D01F921F92CDB7DEB78C017B016A01FB
:104700008091180A833361F410E000E00C151D0558
:1047100099F00E94BA050E94B0050F5F1F4FF6CFB7
:104720008433D1F40E94BA0519830A838D2D8068E1
:104730008B83CC820E94B005C60128960FB6F894F0
:10474000DEBF0FBECDBFDF91CF911F910F91FF90C4
:10475000EF90DF90CF9008958D3309F05EC00E94F6
:10476000BA0580917C0890E0982F882708171907D0
:10477000B0F4812F8F7789830A8384E08B8387014C
:104780000C0D1D1D86E0C816D10478F5F701DE0179
:1047900014960E171F0709F181918D93FACF17FD1B
:1047A0000CC0812F837089830A83812F869586951B
:1047B0008295880F807E8C60E1CFC80146E0969597
:1047C00087954A95E1F7807E19830A830115104C7D
:1047D00010F48461D3CF8C61D1CFB6016D5F7F4F70
:1047E000CE0101960E94FF03A5CF63E070E0CE01E9
:1047F00001960E94FF03F70181919091D00095FFEF
:10480000FCCF8093D6008091D00087FFFCCF8091B1
:10481000D6000E171F0781F78DCF0E94BA050F3FF4
:10482000110509F028F419820A8384E08B830CC0F7
:1048300017FD1CC019820A8333E0169507953A9537
:10484000E1F7007E0C600B8386E0C816D10408F007
:1048500071CFF701DE01149697012C0D3D1D2E1727
:104860003F0709F467CF81918D93F9CFC80126E006
:10487000969587952A95E1F7807E19830A8301151D
:10488000104C10F48461D2CF8C61D0CFDA01E0916A
:104890007C08F0E0FE2FEE27E60FF71F4091790825
:1048A00050917A08682F649FC001659F900D112474
:1048B000A901BD018E0F9F1F0C946F236F927F92F1
:1048C0008F929F92AF92BF92DF92EF92FF920F93DF
:1048D0001F93CF93DF931F921F92CDB7DEB7D82ED1
:1048E0007B013A0149018091180A22E030E0AE01D3
:1048F0004F5F5F4F6CE072E08D3311F064E270E067
:104900008D2D0E94360A09811A8110270127102750
:104910000E0D1F1D580147E0B4228D2D0E94D305B6
:104920008A0D9B1D2091180A273309F442C02D33AC
:1049300009F43FC09501280D391D21303840C8F1D8
:1049400020E038E07901EA18FB08A701B3010E94D2
:104950006F235401AE18BF08E60CF71C8D2D0E9482
:10496000D305A501B7010E946F23080D191D1983F6
:104970000A838091180A22E030E0AE014F5F5F4F5A
:104980006CE072E08D3311F064E270E08D2D0E94D6
:1049900046240F900F90DF91CF911F910F91FF90C0
:1049A000EF90DF90BF90AF909F908F907F906F902F
:1049B0000895A401B301D7CF9F92AF92BF92CF9237
:1049C000DF92EF92FF920F931F93CF93DF938C01AF
:1049D0005B01942EE52EFC01C688D788F08C80E51B
:1049E00091E00E940B578F2D0E94AB0AC92DDE2D3E
:1049F0008C179D0708F4EC019E01A501B6018F2DCF
:104A00000E945E24F801868997898C0F9D1F978BE1
:104A1000868BCE01DF91CF911F910F91FF90EF9088
:104A2000DF90CF90BF90AF909F900895CF93DF938A
:104A30001F921F92CDB7DEB779836A839091180ACF
:104A400022E030E0AE014F5F5F4F60E471E09D33E4
:104A500011F060E170E00E9446240F900F90DF910A
:104A6000CF910895AB019091180A24E030E060E204
:104A700071E09D3311F06CE070E00C944624FF92DD
:104A80000F931F93CF93DF93EB01FC01178A168AD4
:104A90002A81211109C02B81211106C02C812111ED
:104AA00003C02D812223E1F041155105C9F08A018F
:104AB000FC01F08C80E591E00E940B57BE016E5F17
:104AC0007F4F8F2D0E943225B8018F2D0E94162511
:104AD00081E090E0DF91CF911F910F91FF900895B9
:104AE00080E0F7CFCF93DF931F921F92CDB7DEB751
:104AF00079836A839091180A22E030E0AE014F5F1B
:104B00005F4F64E171E09D3311F064E070E00E945A
:104B100046240F900F90DF91CF910895BC018091B2
:104B2000180A44E050E08D3321F488E391E40C94BA
:104B30006F238FE090E0FBCFBC018091180A44E026
:104B400050E08D3321F484E391E40C946F2385E0ED
:104B500090E0FBCFBC018091180A44E050E08D3317
:104B600021F480E391E40C946F2381E090E0FBCF8B
:104B7000CF93DF931F92CDB7DEB7698341E050E05A
:104B8000BE016F5F7F4F0E946F230F90DF91CF9127
:104B90000895682F8091180A8D3321F480E090E405
:104BA0000C94B82590E080E0FBCFCF93DF93809109
:104BB000180A8D3321F50E948151D0E0C0E0219682
:104BC000C531D10569F10E94F70987FDF8CF8091C1
:104BD000180A60E08D3381F484E090E20E94B825E9
:104BE0002196C531D105E0F40E94F70987FFF8CF7F
:104BF00081E0DF91CF91089590E080E0EFCF80E8F1
:104C00000E94C925C4E1D0E00E94020A882381F3F2
:104C100061E070E080E090E00E94B1162197A1F77A
:104C200080E0E7CF20917C0830E0322F2227260F4A
:104C3000371F6091790870917A08582F569FC001EC
:104C4000579F900D1124642F820F931F0C94B82549
:104C5000CF93C82F462F8091180A60E170E08D3302
:104C600011F061E070E08C2F0E9412268091180AEA
:104C700060E170E08D3311F061E070E08C2F0E94F4
:104C80000D0A8111F3CFCF9108954F925F927F92D9
:104C90008F929F92AF92BF92CF92DF92EF92FF924C
:104CA0000F931F93CF93DF931F921F92CDB7DEB761
:104CB000782E6B014A01A82EB12C27E0829FC001FB
:104CC0001124FC01EA59F64F7F010081118180E532
:104CD00091E00E940B570815190554F4872D0E9486
:104CE0002717F70126818C01021B1109118300830C
:104CF0000115110519F5872D0E94220A843159F0FA
:104D0000882349F001E010E08C3111F410E000E05C
:104D1000119501951109C8010F900F90DF91CF9166
:104D20001F910F91FF90EF90DF90CF90BF90AF90C9
:104D30009F908F907F905F904F900895801691067E
:104D40000CF4840187E08A9DF0018B9DF00D112405
:104D5000EA59F64FE280F380C114D10469F12701CA
:104D6000F7E05F22872D0E94C505840D951D2091D7
:104D7000180A273309F45BC02D3309F458C0980191
:104D8000240D351D2130384008F451C020E038E0B2
:104D9000490184189508A401B6010E943909260129
:104DA000480C591C6801C818D908872D0E94C505F0
:104DB000A601B2010E943909E00EF11E87E08A9D2A
:104DC000F0018B9DF00D1124EA59F64FF382E28237
:104DD00020813181201B310B318320838681800F1C
:104DE000912F911D8A3F910510F4232B19F587E02F
:104DF0008A9DF0018B9DF00D1124EA59F64F168221
:104E0000F982EA828091180A22E030E0AE014F5F19
:104E10005F4F68E272E08D3311F068E270E0872D39
:104E20000E94462460E4872D0E94282674CFA801A2
:104E3000B601C0CF86836FCFCF93DF93FC01218D66
:104E4000328D2115310529F48FEF9FEFDF91CF913E
:104E50000895EC01808D4217530708F0A9010E94C4
:104E600045261816190684F7298D3A8D281B390B0B
:104E70003A8F298FEBCF0F931F93CF93DF931F921E
:104E8000CDB7DEB7FC01218D328D232B41F48FEF9E
:104E90009FEF0F90DF91CF911F910F9108958C019B
:104EA00041E050E0BE016F5F7F4FFC01808D0E94AA
:104EB0004526181619065CF7F801818D928D019729
:104EC000928F818F898190E0E4CFEF92FF920F93D0
:104ED0001F93CF93DF93CDB7DEB764970FB6F894E7
:104EE000DEBF0FBECDBF8C01D80159964D915C91AC
:104EF0005A974115510551F0ED91FC91048CF58DB7
:104F0000E02D70E060E0C8011995EECFF801808DCA
:104F10000E945617892B09F490C0D80158968C919D
:104F20009091180A9D3309F05FC042E050E0BE0145
:104F30006F5F7F4F0E9445261816190684F5298158
:104F4000822F90E0982F8827882797703A81832BAB
:104F5000F801928F818F808D7801F0E1EF0EF11CC6
:104F600027FF2AC042E150E0BE016D5F7F4F0E94E3
:104F7000452684E0FE013396D70101900D928A9573
:104F8000E1F78B899C89982789279827D80155961E
:104F90009C938E935497D80159968D919C916496C9
:104FA0000FB6F894DEBF0FBECDBFDF91CF911F913A
:104FB0000F91FF90EF90089546E050E0BE016D5FC5
:104FC0007F4F0E94452684E0FE013396D701019071
:104FD0000D928A95E1F78F819885982789279827E0
:104FE000F801958B848BD7CF48E050E0BE016F5F0E
:104FF0007F4F0E944526181619068CF6D801509648
:1050000084E0FE01319601900D928A95E1F78D8141
:1050100090E0982F88272E81820F911DF801958BA3
:10502000848B8F81282F30E0322F22278885820FB2
:10503000932F911D928F818FB2CF90E080E0AFCF00
:105040003F924F925F926F927F928F929F92AF9218
:10505000BF92CF92DF92EF92FF920F931F93CF9365
:10506000DF93CDB7DEB7EA970FB6F894DEBF0FBE79
:10507000CDBF7C012A013B0169010E94E3164B016F
:105080005C0187010D5B1F4FC8010E946527181640
:1050900019069CF00E94E316681979098A099B0990
:1050A000461657066806790608F466C162E370E0A2
:1050B00080E090E00E94B116E7CF42E250E0BE01EE
:1050C0006F5F7F4FC8010E941C2789818230D1F019
:1050D000312C832DEA960FB6F894DEBF0FBECDBFFC
:1050E000DF91CF911F910F91FF90EF90DF90CF90C4
:1050F000BF90AF909F908F907F906F905F904F90F8
:105100003F900895F801848995898334910501F7CA
:105110006D817E818F8198850E94DA7B4B015C01D5
:10512000F60180829182A282B38246E050E0B7010C
:10513000685F7F4FCE014D960E94E77D892B41F637
:10514000F70180819181A281B38188169906AA0610
:10515000BB0608F4BDCF84819581A681B7818815EF
:105160009905AA05BB0508F4B3CF89899A89AB894B
:10517000BC8986879787A08BB18B4EEC50E070E09E
:1051800060E0C8010E941C27312CC701829698ABB1
:105190008FA7F701B696FAABE9AB08969CAB8BAB41
:1051A00067019AE1C90ED11CBD96FEABEDABC701FC
:1051B000429698AF8FABFD97FAAFE9AF4701FEE19A
:1051C0008F0E911CF801818D928D181619060CF026
:1051D00080CFC8010E943B278333910509F4B2C0F8
:1051E00014F58130910509F464C044F4892B51F31E
:1051F000C8010E943B27AC01552775C0833091053B
:1052000009F462C00697A1F7C8010E943B27B82E97
:1052100044E050E0B401C8010E941C27EB2DE4508B
:10522000FF0BAF0160C08A33910509F45FC084F5BC
:1052300085339105B1F1C697D9F6C8010E943B2785
:105240005C01B601CE0189960E94BB138BA59CA57B
:10525000ADA5BEA5892B8A2B8B2BB1F0EDA9FEA99C
:105260004080518062807380B601CE0183960E9497
:10527000BB138DA19EA1AFA1B8A5A50148165906E3
:105280006A067B0609F0B8CF44E050E0B60118C0CA
:105290008B33910509F440C08F3F910509F492CFFB
:1052A000A7CFC8010E943B27C8010E943B27382E88
:1052B00089CFC8010E943B2744E050E06FA978AD38
:1052C000C8010E941C277ECFC8010E943B27B82E30
:1052D00044E050E069AD7AADC8010E941C278B2DD7
:1052E0008450990BAC0170E060E0EACFC8010E94E5
:1052F0003B2744E050E069A97AA9C8010E941C2715
:10530000F70166A177A180A591A50E94DA7B66A32B
:1053100077A380A791A756CFC8010E943B2744E0FE
:1053200050E06BA97CA9C8010E941C27F70162A567
:1053300073A584A595A50E94DA7B62A773A784A7AD
:1053400095A740CFC8010E943B2744E050E06FA5DD
:1053500078A9C8010E941C27F70162A173A184A14A
:1053600095A10E94DA7B62A373A384A395A366A789
:1053700077A780AB91AB26CF33243A94AACECF93B4
:10538000DF931F92CDB7DEB741E050E0BE016F5F03
:105390007F4FFC0184850E9445261816190634F4B7
:1053A000898190E00F90DF91CF9108958FEF9FEF6B
:1053B000F9CFFC018485883010F40C94452690E0E8
:1053C00080E00895CF93C82F80E591E00E940B57AD
:1053D00068E08C2FCF910C942826CF93C82F80E5BE
:1053E00091E00E940B5760E18C2FCF910C942826FE
:1053F000CF93DF93EC01888D883020F40E94ED2953
:1054000088E0888FDF91CF910895CF92DF92EF925D
:10541000FF92CF93DF93EC018C85883068F40E9473
:10542000E2290E94E3166B017C018C850E94530BDC
:10543000811109C088E08C87DF91CF91FF90EF90B8
:10544000DF90CF90089561E070E080E090E00E94EE
:10545000B1160E94E316AB01BC014C195D096E093F
:105460007F098D859E85B0E0A0E0481759076A073F
:105470007B07D8F28C850E94ED29DCCF462F9091D6
:10548000180A60E072E09D3311F06FE170E00C9457
:105490001226462F9091180A60E272E09D3311F0B7
:1054A0006EE170E00C941226CF9380917B088111FD
:1054B0001BC160E372E080E090E00E94B11680E0E2
:1054C00091E090937A088093790880E48093D000EB
:1054D000809101018460809301011092D5001092A7
:1054E000D40080EC8093D20088E18093D10083E0E7
:1054F00090E09093D5008093D40080910602282FED
:1055000030E0F901EB5AFB4FE491F0E0EE0FFF1FA2
:10551000EF5DFB4F45915491509378084093770885
:10552000F901E556FB4FE491E09376080E94625141
:105530000E94B00584E38093180A0E94D525882331
:10554000A9F188E00E94C9250E94020A883071F5FD
:1055500080E10E94C9250E94020A803139F580E06D
:105560000E94C9250E94020AC82F81111FC0809184
:10557000180A8D33C1F490E080E00E94E609833080
:10558000A9F480E480937C0862E08C2F0E94492A71
:1055900062E08C2F0E943E2ACF5FC830A9F781E0DD
:1055A00080937B089FC08FE190E0E7CF87E38093F3
:1055B000180A0E94D525882331F188E00E94C92568
:1055C0000E94020A8830F9F480E10E94C9250E94F5
:1055D000020A8031C1F480E00E94C9250E94020ABB
:1055E000811111C08091180A8D3351F490E080E050
:1055F0000E94E609843039F480E180937C08CFCFA3
:1056000089E390E0F5CF83E38093180A0E94D525C3
:10561000882389F180E10E94C9250E94020A803115
:1056200051F582E10E94C9250E94020A823119F5D2
:1056300080E00E94C9250E94020A81111CC084E0FA
:1056400080937C088091180A65E58D3371F490E0B1
:1056500080E00E94B8258091180A65E58D3341F4F9
:1056600090E080E00E94B8259ACF8BE190E0F1CFE6
:105670008AE190E0F7CF8DE38093180A80E8809369
:105680007C080E94D525882351F10E948151809188
:10569000180A6AE38D33E9F485EF91E40E94B82596
:1056A0008091180A63E58D33B9F486EF91E40E9486
:1056B000B82590E080E00E94E609813681F480E61A
:1056C00080937C0880E094E090937A088093790836
:1056D00066CF90E080E0E2CF90E080E0E8CF1092EB
:1056E000180A80E0CF91089581E0FCCF0E94542AEF
:1056F000882361F08091180A8D3341F480E090E3B3
:105700000E94E60980FD04C082E0089580E00895CB
:1057100081E00895462F9091180A60E270E09D3371
:1057200011F062E070E00C941226CF93FC01C08D62
:1057300080E591E00E940B5760E28C2F0E942826A2
:105740008C2F0E942C0A84FD12C08C2F0E942C0AE0
:1057500083FF08C068E18C2F0E948A2B80E090E0D4
:10576000CF91089580E591E00E940B57E9CF60E169
:105770008C2F0E948A2B81E0F2CF7F928F929F9292
:10578000AF92BF92CF92DF92EF92FF920F931F934F
:10579000CF93DF93CDB7DEB7A6970FB6F894DEBFF1
:1057A0000FBECDBF8C01762E942E852E20E2A22E28
:1057B000CE0101967C01DC01EA2D1D92EA95E9F704
:1057C0006801F3E4CF0ED11C89E393E09AA389A387
:1057D0008FEF8BA38CA38DA38EA343E450E0BE0177
:1057E0006F5D7F4FC6010E943F25019609F4BFC03F
:1057F00081E089838A8386E0B82EBB821C82D8012F
:1058000014966D917D918D919C9117970E94DA7BF2
:105810006D837E838F83988789869A8680E890E05F
:105820009C878B874CE150E0B701C6010E94DC24C5
:10583000FE0137968AE1DF011D928A95E9F748015A
:10584000B8E08B0E911CF401D70101900D92BA942F
:10585000E1F740E150E0B701C6010E94DC24F70106
:105860001192AA94E9F796E0A92EB12C40E250E0FB
:10587000B701C6010E94DC24F1E0AF1AB108B1F70C
:1058800083E6898392E89A8393E59B838C8385E3FF
:105890008D8381E08E837F829DE3988797E099874F
:1058A0008A8786E0F401DE011B9601900D928A95AD
:1058B000E1F78CE0898B8A8B65EA74E0CE01439630
:1058C0000E941F7ED8011B966C91CE0149960E94C2
:1058D0000E57F8016485CE014B960E940E57D801F1
:1058E0001D966C91CE014D960E940E574EE150E0F0
:1058F000B701C6010E94DC24B3E07B121EC082E324
:10590000898384E08A83F80196859B8397859C83AD
:1059100090899D8391899E8396E39F838887828D5A
:105920008987838D8A87848D8B87858D8C874CE0D2
:1059300050E0B701C6010E94DC2487E3898386E03A
:105940008A8391E09B8393E09C838D838FE08E8399
:105950008AE38F838BE388878FEF898749E050E064
:10596000B701C6010E94DC24C6010E94952BA696B1
:105970000FB6F894DEBF0FBECDBFDF91CF911F9160
:105980000F91FF90EF90DF90CF90BF90AF909F90DE
:105990008F907F9008958F929F92AF92BF92CF92F7
:1059A000DF92EF92FF920F931F93CF936C015B01F5
:1059B0008A01FC01C485C830B8F57A0141305840ED
:1059C00018F0E12C88E0F82E80E591E00E940B575A
:1059D0008C2F0E94AB0A4C018C2F0E94220A873127
:1059E00011F08C3121F58E149F0470F380E591E065
:1059F0000E940B579701A50170E060E08C2F0E9478
:105A00005E2460E28C2F0E9428268C2F0E942C0A94
:105A100084FD15C08C2F0E94220A81110BC081E0E9
:105A200090E0F6019383828310E000E00EC0F12C39
:105A3000E12CDCCF80E591E00E940B57E6CF60E1DE
:105A40008C2F0E948A2BEF2851F3C801CF911F9110
:105A50000F91FF90EF90DF90CF90BF90AF909F900D
:105A60008F900895462F70E060E00C9412268F927C
:105A70009F92AF92BF92CF92DF92EF92FF920F93DD
:105A80001F93CF93DF93CDB7DEB72E970FB6F89461
:105A9000DEBF0FBECDBF7C019091180A911115C0D9
:105AA00018E0812F2E960FB6F894DEBF0FBECDBF43
:105AB000DF91CF911F910F91FF90EF90DF90CF90EA
:105AC000BF90AF909F908F90089504E0933309F0BA
:105AD00008E06B0180E591E00E940B579E012F5F6B
